{
    "_format": "hh-sol-artifact-1",
    "contractName": "MEMEAX",
    "sourceName": "contracts/Lock.sol",
    "abi": [
        {
            "inputs": [],
            "stateMutability": "nonpayable",
            "type": "constructor"
        },
        {
            "inputs": [
                {
                    "internalType": "address",
                    "name": "sender",
                    "type": "address"
                },
                {
                    "internalType": "uint256",
                    "name": "tokenId",
                    "type": "uint256"
                },
                {
                    "internalType": "address",
                    "name": "owner",
                    "type": "address"
                }
            ],
            "name": "ERC721IncorrectOwner",
            "type": "error"
        },
        {
            "inputs": [
                {
                    "internalType": "address",
                    "name": "operator",
                    "type": "address"
                },
                {
                    "internalType": "uint256",
                    "name": "tokenId",
                    "type": "uint256"
                }
            ],
            "name": "ERC721InsufficientApproval",
            "type": "error"
        },
        {
            "inputs": [
                {
                    "internalType": "address",
                    "name": "approver",
                    "type": "address"
                }
            ],
            "name": "ERC721InvalidApprover",
            "type": "error"
        },
        {
            "inputs": [
                {
                    "internalType": "address",
                    "name": "operator",
                    "type": "address"
                }
            ],
            "name": "ERC721InvalidOperator",
            "type": "error"
        },
        {
            "inputs": [
                {
                    "internalType": "address",
                    "name": "owner",
                    "type": "address"
                }
            ],
            "name": "ERC721InvalidOwner",
            "type": "error"
        },
        {
            "inputs": [
                {
                    "internalType": "address",
                    "name": "receiver",
                    "type": "address"
                }
            ],
            "name": "ERC721InvalidReceiver",
            "type": "error"
        },
        {
            "inputs": [
                {
                    "internalType": "address",
                    "name": "sender",
                    "type": "address"
                }
            ],
            "name": "ERC721InvalidSender",
            "type": "error"
        },
        {
            "inputs": [
                {
                    "internalType": "uint256",
                    "name": "tokenId",
                    "type": "uint256"
                }
            ],
            "name": "ERC721NonexistentToken",
            "type": "error"
        },
        {
            "inputs": [
                {
                    "internalType": "address",
                    "name": "owner",
                    "type": "address"
                }
            ],
            "name": "OwnableInvalidOwner",
            "type": "error"
        },
        {
            "inputs": [
                {
                    "internalType": "address",
                    "name": "account",
                    "type": "address"
                }
            ],
            "name": "OwnableUnauthorizedAccount",
            "type": "error"
        },
        {
            "anonymous": false,
            "inputs": [
                {
                    "indexed": true,
                    "internalType": "address",
                    "name": "owner",
                    "type": "address"
                },
                {
                    "indexed": true,
                    "internalType": "address",
                    "name": "approved",
                    "type": "address"
                },
                {
                    "indexed": true,
                    "internalType": "uint256",
                    "name": "tokenId",
                    "type": "uint256"
                }
            ],
            "name": "Approval",
            "type": "event"
        },
        {
            "anonymous": false,
            "inputs": [
                {
                    "indexed": true,
                    "internalType": "address",
                    "name": "owner",
                    "type": "address"
                },
                {
                    "indexed": true,
                    "internalType": "address",
                    "name": "operator",
                    "type": "address"
                },
                {
                    "indexed": false,
                    "internalType": "bool",
                    "name": "approved",
                    "type": "bool"
                }
            ],
            "name": "ApprovalForAll",
            "type": "event"
        },
        {
            "anonymous": false,
            "inputs": [
                {
                    "indexed": false,
                    "internalType": "uint256",
                    "name": "_fromTokenId",
                    "type": "uint256"
                },
                {
                    "indexed": false,
                    "internalType": "uint256",
                    "name": "_toTokenId",
                    "type": "uint256"
                }
            ],
            "name": "BatchMetadataUpdate",
            "type": "event"
        },
        {
            "anonymous": false,
            "inputs": [
                {
                    "indexed": false,
                    "internalType": "uint256",
                    "name": "_tokenId",
                    "type": "uint256"
                }
            ],
            "name": "MetadataUpdate",
            "type": "event"
        },
        {
            "anonymous": false,
            "inputs": [
                {
                    "indexed": true,
                    "internalType": "address",
                    "name": "owner",
                    "type": "address"
                },
                {
                    "indexed": true,
                    "internalType": "uint256",
                    "name": "tokenId",
                    "type": "uint256"
                },
                {
                    "indexed": false,
                    "internalType": "string",
                    "name": "metadataURI",
                    "type": "string"
                }
            ],
            "name": "NFTMinted",
            "type": "event"
        },
        {
            "anonymous": false,
            "inputs": [
                {
                    "indexed": true,
                    "internalType": "address",
                    "name": "previousOwner",
                    "type": "address"
                },
                {
                    "indexed": true,
                    "internalType": "address",
                    "name": "newOwner",
                    "type": "address"
                }
            ],
            "name": "OwnershipTransferred",
            "type": "event"
        },
        {
            "anonymous": false,
            "inputs": [
                {
                    "indexed": true,
                    "internalType": "address",
                    "name": "from",
                    "type": "address"
                },
                {
                    "indexed": true,
                    "internalType": "address",
                    "name": "to",
                    "type": "address"
                },
                {
                    "indexed": true,
                    "internalType": "uint256",
                    "name": "tokenId",
                    "type": "uint256"
                }
            ],
            "name": "Transfer",
            "type": "event"
        },
        {
            "inputs": [
                {
                    "internalType": "address",
                    "name": "to",
                    "type": "address"
                },
                {
                    "internalType": "uint256",
                    "name": "tokenId",
                    "type": "uint256"
                }
            ],
            "name": "approve",
            "outputs": [],
            "stateMutability": "nonpayable",
            "type": "function"
        },
        {
            "inputs": [
                {
                    "internalType": "address",
                    "name": "owner",
                    "type": "address"
                }
            ],
            "name": "balanceOf",
            "outputs": [
                {
                    "internalType": "uint256",
                    "name": "",
                    "type": "uint256"
                }
            ],
            "stateMutability": "view",
            "type": "function"
        },
        {
            "inputs": [],
            "name": "getAllNFTs",
            "outputs": [
                {
                    "internalType": "uint256[]",
                    "name": "",
                    "type": "uint256[]"
                }
            ],
            "stateMutability": "view",
            "type": "function"
        },
        {
            "inputs": [
                {
                    "internalType": "uint256",
                    "name": "tokenId",
                    "type": "uint256"
                }
            ],
            "name": "getApproved",
            "outputs": [
                {
                    "internalType": "address",
                    "name": "",
                    "type": "address"
                }
            ],
            "stateMutability": "view",
            "type": "function"
        },
        {
            "inputs": [
                {
                    "internalType": "uint256",
                    "name": "tokenId",
                    "type": "uint256"
                }
            ],
            "name": "getNFTDetails",
            "outputs": [
                {
                    "internalType": "string",
                    "name": "",
                    "type": "string"
                },
                {
                    "internalType": "string",
                    "name": "",
                    "type": "string"
                },
                {
                    "internalType": "string",
                    "name": "",
                    "type": "string"
                },
                {
                    "internalType": "address",
                    "name": "",
                    "type": "address"
                }
            ],
            "stateMutability": "view",
            "type": "function"
        },
        {
            "inputs": [
                {
                    "internalType": "address",
                    "name": "owner",
                    "type": "address"
                },
                {
                    "internalType": "address",
                    "name": "operator",
                    "type": "address"
                }
            ],
            "name": "isApprovedForAll",
            "outputs": [
                {
                    "internalType": "bool",
                    "name": "",
                    "type": "bool"
                }
            ],
            "stateMutability": "view",
            "type": "function"
        },
        {
            "inputs": [
                {
                    "internalType": "address",
                    "name": "recipient",
                    "type": "address"
                },
                {
                    "internalType": "string",
                    "name": "title",
                    "type": "string"
                },
                {
                    "internalType": "string",
                    "name": "description",
                    "type": "string"
                },
                {
                    "internalType": "string",
                    "name": "metadataURI",
                    "type": "string"
                }
            ],
            "name": "mintMemeNFT",
            "outputs": [
                {
                    "internalType": "uint256",
                    "name": "",
                    "type": "uint256"
                }
            ],
            "stateMutability": "nonpayable",
            "type": "function"
        },
        {
            "inputs": [],
            "name": "name",
            "outputs": [
                {
                    "internalType": "string",
                    "name": "",
                    "type": "string"
                }
            ],
            "stateMutability": "view",
            "type": "function"
        },
        {
            "inputs": [],
            "name": "owner",
            "outputs": [
                {
                    "internalType": "address",
                    "name": "",
                    "type": "address"
                }
            ],
            "stateMutability": "view",
            "type": "function"
        },
        {
            "inputs": [
                {
                    "internalType": "uint256",
                    "name": "tokenId",
                    "type": "uint256"
                }
            ],
            "name": "ownerOf",
            "outputs": [
                {
                    "internalType": "address",
                    "name": "",
                    "type": "address"
                }
            ],
            "stateMutability": "view",
            "type": "function"
        },
        {
            "inputs": [],
            "name": "renounceOwnership",
            "outputs": [],
            "stateMutability": "nonpayable",
            "type": "function"
        },
        {
            "inputs": [
                {
                    "internalType": "address",
                    "name": "from",
                    "type": "address"
                },
                {
                    "internalType": "address",
                    "name": "to",
                    "type": "address"
                },
                {
                    "internalType": "uint256",
                    "name": "tokenId",
                    "type": "uint256"
                }
            ],
            "name": "safeTransferFrom",
            "outputs": [],
            "stateMutability": "nonpayable",
            "type": "function"
        },
        {
            "inputs": [
                {
                    "internalType": "address",
                    "name": "from",
                    "type": "address"
                },
                {
                    "internalType": "address",
                    "name": "to",
                    "type": "address"
                },
                {
                    "internalType": "uint256",
                    "name": "tokenId",
                    "type": "uint256"
                },
                {
                    "internalType": "bytes",
                    "name": "data",
                    "type": "bytes"
                }
            ],
            "name": "safeTransferFrom",
            "outputs": [],
            "stateMutability": "nonpayable",
            "type": "function"
        },
        {
            "inputs": [
                {
                    "internalType": "address",
                    "name": "operator",
                    "type": "address"
                },
                {
                    "internalType": "bool",
                    "name": "approved",
                    "type": "bool"
                }
            ],
            "name": "setApprovalForAll",
            "outputs": [],
            "stateMutability": "nonpayable",
            "type": "function"
        },
        {
            "inputs": [
                {
                    "internalType": "bytes4",
                    "name": "interfaceId",
                    "type": "bytes4"
                }
            ],
            "name": "supportsInterface",
            "outputs": [
                {
                    "internalType": "bool",
                    "name": "",
                    "type": "bool"
                }
            ],
            "stateMutability": "view",
            "type": "function"
        },
        {
            "inputs": [],
            "name": "symbol",
            "outputs": [
                {
                    "internalType": "string",
                    "name": "",
                    "type": "string"
                }
            ],
            "stateMutability": "view",
            "type": "function"
        },
        {
            "inputs": [
                {
                    "internalType": "uint256",
                    "name": "tokenId",
                    "type": "uint256"
                }
            ],
            "name": "tokenURI",
            "outputs": [
                {
                    "internalType": "string",
                    "name": "",
                    "type": "string"
                }
            ],
            "stateMutability": "view",
            "type": "function"
        },
        {
            "inputs": [
                {
                    "internalType": "address",
                    "name": "from",
                    "type": "address"
                },
                {
                    "internalType": "address",
                    "name": "to",
                    "type": "address"
                },
                {
                    "internalType": "uint256",
                    "name": "tokenId",
                    "type": "uint256"
                }
            ],
            "name": "transferFrom",
            "outputs": [],
            "stateMutability": "nonpayable",
            "type": "function"
        },
        {
            "inputs": [
                {
                    "internalType": "address",
                    "name": "newOwner",
                    "type": "address"
                }
            ],
            "name": "transferOwnership",
            "outputs": [],
            "stateMutability": "nonpayable",
            "type": "function"
        }
    ],
    "bytecode": "0x60806040523480156200001157600080fd5b50336040518060400160405280600981526020017f4d656d6561784e465400000000000000000000000000000000000000000000008152506040518060400160405280600681526020017f4d454d4541580000000000000000000000000000000000000000000000000000815250816000908162000090919062000472565b508060019081620000a2919062000472565b505050600073ffffffffffffffffffffffffffffffffffffffff168173ffffffffffffffffffffffffffffffffffffffff16036200011a5760006040517f1e4fbdf70000000000000000000000000000000000000000000000000000000081526004016200011191906200059e565b60405180910390fd5b6200012b816200013260201b60201c565b50620005bb565b6000600760009054906101000a900473ffffffffffffffffffffffffffffffffffffffff16905081600760006101000a81548173ffffffffffffffffffffffffffffffffffffffff021916908373ffffffffffffffffffffffffffffffffffffffff1602179055508173ffffffffffffffffffffffffffffffffffffffff168173ffffffffffffffffffffffffffffffffffffffff167f8be0079c531659141344cd1fd0a4f28419497f9722a3daafe3b4186f6b6457e060405160405180910390a35050565b600081519050919050565b7f4e487b7100000000000000000000000000000000000000000000000000000000600052604160045260246000fd5b7f4e487b7100000000000000000000000000000000000000000000000000000000600052602260045260246000fd5b600060028204905060018216806200027a57607f821691505b60208210810362000290576200028f62000232565b5b50919050565b60008190508160005260206000209050919050565b60006020601f8301049050919050565b600082821b905092915050565b600060088302620002fa7fffffffffffffffffffffffffffffffffffffffffffffffffffffffffffffffff82620002bb565b620003068683620002bb565b95508019841693508086168417925050509392505050565b6000819050919050565b6000819050919050565b6000620003536200034d62000347846200031e565b62000328565b6200031e565b9050919050565b6000819050919050565b6200036f8362000332565b620003876200037e826200035a565b848454620002c8565b825550505050565b600090565b6200039e6200038f565b620003ab81848462000364565b505050565b5b81811015620003d357620003c760008262000394565b600181019050620003b1565b5050565b601f8211156200042257620003ec8162000296565b620003f784620002ab565b8101602085101562000407578190505b6200041f6200041685620002ab565b830182620003b0565b50505b505050565b600082821c905092915050565b6000620004476000198460080262000427565b1980831691505092915050565b600062000462838362000434565b9150826002028217905092915050565b6200047d82620001f8565b67ffffffffffffffff81111562000499576200049862000203565b5b620004a5825462000261565b620004b2828285620003d7565b600060209050601f831160018114620004ea5760008415620004d5578287015190505b620004e1858262000454565b86555062000551565b601f198416620004fa8662000296565b60005b828110156200052457848901518255600182019150602085019450602081019050620004fd565b8683101562000544578489015162000540601f89168262000434565b8355505b6001600288020188555050505b505050505050565b600073ffffffffffffffffffffffffffffffffffffffff82169050919050565b6000620005868262000559565b9050919050565b620005988162000579565b82525050565b6000602082019050620005b560008301846200058d565b92915050565b612d4380620005cb6000396000f3fe608060405234801561001057600080fd5b50600436106101215760003560e01c806382260f35116100ad578063b88d4fde11610071578063b88d4fde1461031d578063c87b56dd14610339578063e0391b0914610369578063e985e9c514610387578063f2fde38b146103b757610121565b806382260f3514610262578063848228a1146102955780638da5cb5b146102c557806395d89b41146102e3578063a22cb4651461030157610121565b806323b872dd116100f457806323b872dd146101c057806342842e0e146101dc5780636352211e146101f857806370a0823114610228578063715018a61461025857610121565b806301ffc9a71461012657806306fdde0314610156578063081812fc14610174578063095ea7b3146101a4575b600080fd5b610140600480360381019061013b9190611fb3565b6103d3565b60405161014d9190611ffb565b60405180910390f35b61015e610434565b60405161016b91906120a6565b60405180910390f35b61018e600480360381019061018991906120fe565b6104c6565b60405161019b919061216c565b60405180910390f35b6101be60048036038101906101b991906121b3565b6104e2565b005b6101da60048036038101906101d591906121f3565b6104f8565b005b6101f660048036038101906101f191906121f3565b6105fa565b005b610212600480360381019061020d91906120fe565b61061a565b60405161021f919061216c565b60405180910390f35b610242600480360381019061023d9190612246565b61062c565b60405161024f9190612282565b60405180910390f35b6102606106e6565b005b61027c600480360381019061027791906120fe565b6106fa565b60405161028c949392919061229d565b60405180910390f35b6102af60048036038101906102aa919061242c565b610952565b6040516102bc9190612282565b60405180910390f35b6102cd610ae3565b6040516102da919061216c565b60405180910390f35b6102eb610b0d565b6040516102f891906120a6565b60405180910390f35b61031b60048036038101906103169190612513565b610b9f565b005b610337600480360381019061033291906125f4565b610bb5565b005b610353600480360381019061034e91906120fe565b610bda565b60405161036091906120a6565b60405180910390f35b610371610ced565b60405161037e9190612735565b60405180910390f35b6103a1600480360381019061039c9190612757565b610dbc565b6040516103ae9190611ffb565b60405180910390f35b6103d160048036038101906103cc9190612246565b610e50565b005b6000634906490660e01b7bffffffffffffffffffffffffffffffffffffffffffffffffffffffff1916827bffffffffffffffffffffffffffffffffffffffffffffffffffffffff1916148061042d575061042c82610ed6565b5b9050919050565b606060008054610443906127c6565b80601f016020809104026020016040519081016040528092919081815260200182805461046f906127c6565b80156104bc5780601f10610491576101008083540402835291602001916104bc565b820191906000526020600020905b81548152906001019060200180831161049f57829003601f168201915b5050505050905090565b60006104d182610fb8565b506104db82611040565b9050919050565b6104f482826104ef61107d565b611085565b5050565b600073ffffffffffffffffffffffffffffffffffffffff168273ffffffffffffffffffffffffffffffffffffffff160361056a5760006040517f64a0ae92000000000000000000000000000000000000000000000000000000008152600401610561919061216c565b60405180910390fd5b600061057e838361057961107d565b611097565b90508373ffffffffffffffffffffffffffffffffffffffff168173ffffffffffffffffffffffffffffffffffffffff16146105f4578382826040517f64283d7b0000000000000000000000000000000000000000000000000000000081526004016105eb939291906127f7565b60405180910390fd5b50505050565b61061583838360405180602001604052806000815250610bb5565b505050565b600061062582610fb8565b9050919050565b60008073ffffffffffffffffffffffffffffffffffffffff168273ffffffffffffffffffffffffffffffffffffffff160361069f5760006040517f89c62b64000000000000000000000000000000000000000000000000000000008152600401610696919061216c565b60405180910390fd5b600360008373ffffffffffffffffffffffffffffffffffffffff1673ffffffffffffffffffffffffffffffffffffffff168152602001908152602001600020549050919050565b6106ee6112b1565b6106f86000611338565b565b6060806060600080600a6000878152602001908152602001600020604051806080016040529081600082018054610730906127c6565b80601f016020809104026020016040519081016040528092919081815260200182805461075c906127c6565b80156107a95780601f1061077e576101008083540402835291602001916107a9565b820191906000526020600020905b81548152906001019060200180831161078c57829003601f168201915b505050505081526020016001820180546107c2906127c6565b80601f01602080910402602001604051908101604052809291908181526020018280546107ee906127c6565b801561083b5780601f106108105761010080835404028352916020019161083b565b820191906000526020600020905b81548152906001019060200180831161081e57829003601f168201915b50505050508152602001600282018054610854906127c6565b80601f0160208091040260200160405190810160405280929190818152602001828054610880906127c6565b80156108cd5780601f106108a2576101008083540402835291602001916108cd565b820191906000526020600020905b8154815290600101906020018083116108b057829003601f168201915b505050505081526020016003820160009054906101000a900473ffffffffffffffffffffffffffffffffffffffff1673ffffffffffffffffffffffffffffffffffffffff1673ffffffffffffffffffffffffffffffffffffffff1681525050905080600001518160200151826040015183606001519450945094509450509193509193565b6000600160086000828254610967919061285d565b925050819055506000600854905061097f86826113fe565b610989818461141c565b60405180608001604052808681526020018581526020018481526020013373ffffffffffffffffffffffffffffffffffffffff16815250600a600083815260200190815260200160002060008201518160000190816109e89190612a3d565b5060208201518160010190816109fe9190612a3d565b506040820151816002019081610a149190612a3d565b5060608201518160030160006101000a81548173ffffffffffffffffffffffffffffffffffffffff021916908373ffffffffffffffffffffffffffffffffffffffff1602179055509050506009819080600181540180825580915050600190039060005260206000200160009091909190915055808673ffffffffffffffffffffffffffffffffffffffff167fd35bb95e09c04b219e35047ce7b7b300e3384264ef84a40456943dbc0fc17c1485604051610acf91906120a6565b60405180910390a380915050949350505050565b6000600760009054906101000a900473ffffffffffffffffffffffffffffffffffffffff16905090565b606060018054610b1c906127c6565b80601f0160208091040260200160405190810160405280929190818152602001828054610b48906127c6565b8015610b955780601f10610b6a57610100808354040283529160200191610b95565b820191906000526020600020905b815481529060010190602001808311610b7857829003601f168201915b5050505050905090565b610bb1610baa61107d565b8383611478565b5050565b610bc08484846104f8565b610bd4610bcb61107d565b858585856115e7565b50505050565b6060610be582610fb8565b506000600660008481526020019081526020016000208054610c06906127c6565b80601f0160208091040260200160405190810160405280929190818152602001828054610c32906127c6565b8015610c7f5780601f10610c5457610100808354040283529160200191610c7f565b820191906000526020600020905b815481529060010190602001808311610c6257829003601f168201915b505050505090506000610c90611798565b90506000815103610ca5578192505050610ce8565b600082511115610cda578082604051602001610cc2929190612b4b565b60405160208183030381529060405292505050610ce8565b610ce3846117af565b925050505b919050565b60606000600980549050905060008167ffffffffffffffff811115610d1557610d14612301565b5b604051908082528060200260200182016040528015610d435781602001602082028036833780820191505090505b50905060005b82811015610db357600981600185610d619190612b6f565b610d6b9190612b6f565b81548110610d7c57610d7b612ba3565b5b9060005260206000200154828281518110610d9a57610d99612ba3565b5b6020026020010181815250508080600101915050610d49565b50809250505090565b6000600560008473ffffffffffffffffffffffffffffffffffffffff1673ffffffffffffffffffffffffffffffffffffffff16815260200190815260200160002060008373ffffffffffffffffffffffffffffffffffffffff1673ffffffffffffffffffffffffffffffffffffffff16815260200190815260200160002060009054906101000a900460ff16905092915050565b610e586112b1565b600073ffffffffffffffffffffffffffffffffffffffff168173ffffffffffffffffffffffffffffffffffffffff1603610eca5760006040517f1e4fbdf7000000000000000000000000000000000000000000000000000000008152600401610ec1919061216c565b60405180910390fd5b610ed381611338565b50565b60007f80ac58cd000000000000000000000000000000000000000000000000000000007bffffffffffffffffffffffffffffffffffffffffffffffffffffffff1916827bffffffffffffffffffffffffffffffffffffffffffffffffffffffff19161480610fa157507f5b5e139f000000000000000000000000000000000000000000000000000000007bffffffffffffffffffffffffffffffffffffffffffffffffffffffff1916827bffffffffffffffffffffffffffffffffffffffffffffffffffffffff1916145b80610fb15750610fb082611818565b5b9050919050565b600080610fc483611882565b9050600073ffffffffffffffffffffffffffffffffffffffff168173ffffffffffffffffffffffffffffffffffffffff160361103757826040517f7e27328900000000000000000000000000000000000000000000000000000000815260040161102e9190612282565b60405180910390fd5b80915050919050565b60006004600083815260200190815260200160002060009054906101000a900473ffffffffffffffffffffffffffffffffffffffff169050919050565b600033905090565b61109283838360016118bf565b505050565b6000806110a384611882565b9050600073ffffffffffffffffffffffffffffffffffffffff168373ffffffffffffffffffffffffffffffffffffffff16146110e5576110e4818486611a84565b5b600073ffffffffffffffffffffffffffffffffffffffff168173ffffffffffffffffffffffffffffffffffffffff1614611176576111276000856000806118bf565b6001600360008373ffffffffffffffffffffffffffffffffffffffff1673ffffffffffffffffffffffffffffffffffffffff168152602001908152602001600020600082825403925050819055505b600073ffffffffffffffffffffffffffffffffffffffff168573ffffffffffffffffffffffffffffffffffffffff16146111f9576001600360008773ffffffffffffffffffffffffffffffffffffffff1673ffffffffffffffffffffffffffffffffffffffff168152602001908152602001600020600082825401925050819055505b846002600086815260200190815260200160002060006101000a81548173ffffffffffffffffffffffffffffffffffffffff021916908373ffffffffffffffffffffffffffffffffffffffff160217905550838573ffffffffffffffffffffffffffffffffffffffff168273ffffffffffffffffffffffffffffffffffffffff167fddf252ad1be2c89b69c2b068fc378daa952ba7f163c4a11628f55a4df523b3ef60405160405180910390a4809150509392505050565b6112b961107d565b73ffffffffffffffffffffffffffffffffffffffff166112d7610ae3565b73ffffffffffffffffffffffffffffffffffffffff1614611336576112fa61107d565b6040517f118cdaa700000000000000000000000000000000000000000000000000000000815260040161132d919061216c565b60405180910390fd5b565b6000600760009054906101000a900473ffffffffffffffffffffffffffffffffffffffff16905081600760006101000a81548173ffffffffffffffffffffffffffffffffffffffff021916908373ffffffffffffffffffffffffffffffffffffffff1602179055508173ffffffffffffffffffffffffffffffffffffffff168173ffffffffffffffffffffffffffffffffffffffff167f8be0079c531659141344cd1fd0a4f28419497f9722a3daafe3b4186f6b6457e060405160405180910390a35050565b611418828260405180602001604052806000815250611b48565b5050565b8060066000848152602001908152602001600020908161143c9190612a3d565b507ff8e1a15aba9398e019f0b49df1a4fde98ee17ae345cb5f6b5e2c27f5033e8ce78260405161146c9190612282565b60405180910390a15050565b600073ffffffffffffffffffffffffffffffffffffffff168273ffffffffffffffffffffffffffffffffffffffff16036114e957816040517f5b08ba180000000000000000000000000000000000000000000000000000000081526004016114e0919061216c565b60405180910390fd5b80600560008573ffffffffffffffffffffffffffffffffffffffff1673ffffffffffffffffffffffffffffffffffffffff16815260200190815260200160002060008473ffffffffffffffffffffffffffffffffffffffff1673ffffffffffffffffffffffffffffffffffffffff16815260200190815260200160002060006101000a81548160ff0219169083151502179055508173ffffffffffffffffffffffffffffffffffffffff168373ffffffffffffffffffffffffffffffffffffffff167f17307eab39ab6107e8899845ad3d59bd9653f200f220920489ca2b5937696c31836040516115da9190611ffb565b60405180910390a3505050565b60008373ffffffffffffffffffffffffffffffffffffffff163b1115611791578273ffffffffffffffffffffffffffffffffffffffff1663150b7a02868685856040518563ffffffff1660e01b81526004016116469493929190612c27565b6020604051808303816000875af192505050801561168257506040513d601f19601f8201168201806040525081019061167f9190612c88565b60015b611706573d80600081146116b2576040519150601f19603f3d011682016040523d82523d6000602084013e6116b7565b606091505b5060008151036116fe57836040517f64a0ae920000000000000000000000000000000000000000000000000000000081526004016116f5919061216c565b60405180910390fd5b805181602001fd5b63150b7a0260e01b7bffffffffffffffffffffffffffffffffffffffffffffffffffffffff1916817bffffffffffffffffffffffffffffffffffffffffffffffffffffffff19161461178f57836040517f64a0ae92000000000000000000000000000000000000000000000000000000008152600401611786919061216c565b60405180910390fd5b505b5050505050565b606060405180602001604052806000815250905090565b60606117ba82610fb8565b5060006117c5611798565b905060008151116117e55760405180602001604052806000815250611810565b806117ef84611b6c565b604051602001611800929190612b4b565b6040516020818303038152906040525b915050919050565b60007f01ffc9a7000000000000000000000000000000000000000000000000000000007bffffffffffffffffffffffffffffffffffffffffffffffffffffffff1916827bffffffffffffffffffffffffffffffffffffffffffffffffffffffff1916149050919050565b60006002600083815260200190815260200160002060009054906101000a900473ffffffffffffffffffffffffffffffffffffffff169050919050565b80806118f85750600073ffffffffffffffffffffffffffffffffffffffff168273ffffffffffffffffffffffffffffffffffffffff1614155b15611a2c57600061190884610fb8565b9050600073ffffffffffffffffffffffffffffffffffffffff168373ffffffffffffffffffffffffffffffffffffffff161415801561197357508273ffffffffffffffffffffffffffffffffffffffff168173ffffffffffffffffffffffffffffffffffffffff1614155b801561198657506119848184610dbc565b155b156119c857826040517fa9fbf51f0000000000000000000000000000000000000000000000000000000081526004016119bf919061216c565b60405180910390fd5b8115611a2a57838573ffffffffffffffffffffffffffffffffffffffff168273ffffffffffffffffffffffffffffffffffffffff167f8c5be1e5ebec7d5bd14f71427d1e84f3dd0314c0f7b2291e5b200ac8c7c3b92560405160405180910390a45b505b836004600085815260200190815260200160002060006101000a81548173ffffffffffffffffffffffffffffffffffffffff021916908373ffffffffffffffffffffffffffffffffffffffff16021790555050505050565b611a8f838383611c3a565b611b4357600073ffffffffffffffffffffffffffffffffffffffff168373ffffffffffffffffffffffffffffffffffffffff1603611b0457806040517f7e273289000000000000000000000000000000000000000000000000000000008152600401611afb9190612282565b60405180910390fd5b81816040517f177e802f000000000000000000000000000000000000000000000000000000008152600401611b3a929190612cb5565b60405180910390fd5b505050565b611b528383611cfb565b611b67611b5d61107d565b60008585856115e7565b505050565b606060006001611b7b84611df4565b01905060008167ffffffffffffffff811115611b9a57611b99612301565b5b6040519080825280601f01601f191660200182016040528015611bcc5781602001600182028036833780820191505090505b509050600082602001820190505b600115611c2f578080600190039150507f3031323334353637383961626364656600000000000000000000000000000000600a86061a8153600a8581611c2357611c22612cde565b5b04945060008503611bda575b819350505050919050565b60008073ffffffffffffffffffffffffffffffffffffffff168373ffffffffffffffffffffffffffffffffffffffff1614158015611cf257508273ffffffffffffffffffffffffffffffffffffffff168473ffffffffffffffffffffffffffffffffffffffff161480611cb35750611cb28484610dbc565b5b80611cf157508273ffffffffffffffffffffffffffffffffffffffff16611cd983611040565b73ffffffffffffffffffffffffffffffffffffffff16145b5b90509392505050565b600073ffffffffffffffffffffffffffffffffffffffff168273ffffffffffffffffffffffffffffffffffffffff1603611d6d5760006040517f64a0ae92000000000000000000000000000000000000000000000000000000008152600401611d64919061216c565b60405180910390fd5b6000611d7b83836000611097565b9050600073ffffffffffffffffffffffffffffffffffffffff168173ffffffffffffffffffffffffffffffffffffffff1614611def5760006040517f73c6ac6e000000000000000000000000000000000000000000000000000000008152600401611de6919061216c565b60405180910390fd5b505050565b600080600090507a184f03e93ff9f4daa797ed6e38ed64bf6a1f0100000000000000008310611e52577a184f03e93ff9f4daa797ed6e38ed64bf6a1f0100000000000000008381611e4857611e47612cde565b5b0492506040810190505b6d04ee2d6d415b85acef81000000008310611e8f576d04ee2d6d415b85acef81000000008381611e8557611e84612cde565b5b0492506020810190505b662386f26fc100008310611ebe57662386f26fc100008381611eb457611eb3612cde565b5b0492506010810190505b6305f5e1008310611ee7576305f5e1008381611edd57611edc612cde565b5b0492506008810190505b6127108310611f0c576127108381611f0257611f01612cde565b5b0492506004810190505b60648310611f2f5760648381611f2557611f24612cde565b5b0492506002810190505b600a8310611f3e576001810190505b80915050919050565b6000604051905090565b600080fd5b600080fd5b60007fffffffff0000000000000000000000000000000000000000000000000000000082169050919050565b611f9081611f5b565b8114611f9b57600080fd5b50565b600081359050611fad81611f87565b92915050565b600060208284031215611fc957611fc8611f51565b5b6000611fd784828501611f9e565b91505092915050565b60008115159050919050565b611ff581611fe0565b82525050565b60006020820190506120106000830184611fec565b92915050565b600081519050919050565b600082825260208201905092915050565b60005b83811015612050578082015181840152602081019050612035565b60008484015250505050565b6000601f19601f8301169050919050565b600061207882612016565b6120828185612021565b9350612092818560208601612032565b61209b8161205c565b840191505092915050565b600060208201905081810360008301526120c0818461206d565b905092915050565b6000819050919050565b6120db816120c8565b81146120e657600080fd5b50565b6000813590506120f8816120d2565b92915050565b60006020828403121561211457612113611f51565b5b6000612122848285016120e9565b91505092915050565b600073ffffffffffffffffffffffffffffffffffffffff82169050919050565b60006121568261212b565b9050919050565b6121668161214b565b82525050565b6000602082019050612181600083018461215d565b92915050565b6121908161214b565b811461219b57600080fd5b50565b6000813590506121ad81612187565b92915050565b600080604083850312156121ca576121c9611f51565b5b60006121d88582860161219e565b92505060206121e9858286016120e9565b9150509250929050565b60008060006060848603121561220c5761220b611f51565b5b600061221a8682870161219e565b935050602061222b8682870161219e565b925050604061223c868287016120e9565b9150509250925092565b60006020828403121561225c5761225b611f51565b5b600061226a8482850161219e565b91505092915050565b61227c816120c8565b82525050565b60006020820190506122976000830184612273565b92915050565b600060808201905081810360008301526122b7818761206d565b905081810360208301526122cb818661206d565b905081810360408301526122df818561206d565b90506122ee606083018461215d565b95945050505050565b600080fd5b600080fd5b7f4e487b7100000000000000000000000000000000000000000000000000000000600052604160045260246000fd5b6123398261205c565b810181811067ffffffffffffffff8211171561235857612357612301565b5b80604052505050565b600061236b611f47565b90506123778282612330565b919050565b600067ffffffffffffffff82111561239757612396612301565b5b6123a08261205c565b9050602081019050919050565b82818337600083830152505050565b60006123cf6123ca8461237c565b612361565b9050828152602081018484840111156123eb576123ea6122fc565b5b6123f68482856123ad565b509392505050565b600082601f830112612413576124126122f7565b5b81356124238482602086016123bc565b91505092915050565b6000806000806080858703121561244657612445611f51565b5b60006124548782880161219e565b945050602085013567ffffffffffffffff81111561247557612474611f56565b5b612481878288016123fe565b935050604085013567ffffffffffffffff8111156124a2576124a1611f56565b5b6124ae878288016123fe565b925050606085013567ffffffffffffffff8111156124cf576124ce611f56565b5b6124db878288016123fe565b91505092959194509250565b6124f081611fe0565b81146124fb57600080fd5b50565b60008135905061250d816124e7565b92915050565b6000806040838503121561252a57612529611f51565b5b60006125388582860161219e565b9250506020612549858286016124fe565b9150509250929050565b600067ffffffffffffffff82111561256e5761256d612301565b5b6125778261205c565b9050602081019050919050565b600061259761259284612553565b612361565b9050828152602081018484840111156125b3576125b26122fc565b5b6125be8482856123ad565b509392505050565b600082601f8301126125db576125da6122f7565b5b81356125eb848260208601612584565b91505092915050565b6000806000806080858703121561260e5761260d611f51565b5b600061261c8782880161219e565b945050602061262d8782880161219e565b935050604061263e878288016120e9565b925050606085013567ffffffffffffffff81111561265f5761265e611f56565b5b61266b878288016125c6565b91505092959194509250565b600081519050919050565b600082825260208201905092915050565b6000819050602082019050919050565b6126ac816120c8565b82525050565b60006126be83836126a3565b60208301905092915050565b6000602082019050919050565b60006126e282612677565b6126ec8185612682565b93506126f783612693565b8060005b8381101561272857815161270f88826126b2565b975061271a836126ca565b9250506001810190506126fb565b5085935050505092915050565b6000602082019050818103600083015261274f81846126d7565b905092915050565b6000806040838503121561276e5761276d611f51565b5b600061277c8582860161219e565b925050602061278d8582860161219e565b9150509250929050565b7f4e487b7100000000000000000000000000000000000000000000000000000000600052602260045260246000fd5b600060028204905060018216806127de57607f821691505b6020821081036127f1576127f0612797565b5b50919050565b600060608201905061280c600083018661215d565b6128196020830185612273565b612826604083018461215d565b949350505050565b7f4e487b7100000000000000000000000000000000000000000000000000000000600052601160045260246000fd5b6000612868826120c8565b9150612873836120c8565b925082820190508082111561288b5761288a61282e565b5b92915050565b60008190508160005260206000209050919050565b60006020601f8301049050919050565b600082821b905092915050565b6000600883026128f37fffffffffffffffffffffffffffffffffffffffffffffffffffffffffffffffff826128b6565b6128fd86836128b6565b95508019841693508086168417925050509392505050565b6000819050919050565b600061293a612935612930846120c8565b612915565b6120c8565b9050919050565b6000819050919050565b6129548361291f565b61296861296082612941565b8484546128c3565b825550505050565b600090565b61297d612970565b61298881848461294b565b505050565b5b818110156129ac576129a1600082612975565b60018101905061298e565b5050565b601f8211156129f1576129c281612891565b6129cb846128a6565b810160208510156129da578190505b6129ee6129e6856128a6565b83018261298d565b50505b505050565b600082821c905092915050565b6000612a14600019846008026129f6565b1980831691505092915050565b6000612a2d8383612a03565b9150826002028217905092915050565b612a4682612016565b67ffffffffffffffff811115612a5f57612a5e612301565b5b612a6982546127c6565b612a748282856129b0565b600060209050601f831160018114612aa75760008415612a95578287015190505b612a9f8582612a21565b865550612b07565b601f198416612ab586612891565b60005b82811015612add57848901518255600182019150602085019450602081019050612ab8565b86831015612afa5784890151612af6601f891682612a03565b8355505b6001600288020188555050505b505050505050565b600081905092915050565b6000612b2582612016565b612b2f8185612b0f565b9350612b3f818560208601612032565b80840191505092915050565b6000612b578285612b1a565b9150612b638284612b1a565b91508190509392505050565b6000612b7a826120c8565b9150612b85836120c8565b9250828203905081811115612b9d57612b9c61282e565b5b92915050565b7f4e487b7100000000000000000000000000000000000000000000000000000000600052603260045260246000fd5b600081519050919050565b600082825260208201905092915050565b6000612bf982612bd2565b612c038185612bdd565b9350612c13818560208601612032565b612c1c8161205c565b840191505092915050565b6000608082019050612c3c600083018761215d565b612c49602083018661215d565b612c566040830185612273565b8181036060830152612c688184612bee565b905095945050505050565b600081519050612c8281611f87565b92915050565b600060208284031215612c9e57612c9d611f51565b5b6000612cac84828501612c73565b91505092915050565b6000604082019050612cca600083018561215d565b612cd76020830184612273565b9392505050565b7f4e487b7100000000000000000000000000000000000000000000000000000000600052601260045260246000fdfea2646970667358221220a29464b818beac39601a0f6f5b706fbd11ca99b95de9ce7d783c07b438e75d7c64736f6c63430008180033",
    "linkReferences": {},
    "deployedLinkReferences": {}
}